:020000022000DC
:10700000000004201167050055670500AD7C0500F0
:10701000D97C05005B6705005D6705000000000086
:107020000000000000000000000000005F67050095
:1070300061670500000000006367050065670500E3
:107040006767050067670500B1EF020001070300ED
:10705000676705006767050025150300C116030073
:1070600067670500290F0300390F030091DA02005A
:1070700067670500676705006767050067670500C4
:10708000A1080300A5DA020067670500676705002D
:10709000676705006767050041DD02006767050057
:1070A0006767050067670500676705006767050094
:1070B000676705006767050000000000000000002A
:1070C000676705006767050067670500FD00030047
:1070D000B9DA0200676705006767050067670500A2
:1070E000EDF70200E9FC0200676705000000000000
:1070F0000000000067670500000000002901030090
:10710000000000000000000000000000000000007F
:10711000000000000000000000000000000000006F
:10712000000000000000000000000000000000005F
:10713000000000000000000000000000000000004F
:10714000000000000000000000000000000000003F
:10715000000000000000000000000000000000002F
:10716000000000000000000000000000000000001F
:10717000000000000000000000000000000000000F
:1071800000000000000000000000000000000000FF
:1071900000000000000000000000000000000000EF
:1071A00000000000000000000000000000000000DF
:1071B00000000000000000000000000000000000CF
:1071C00000000000000000000000000000000000BF
:1071D00000000000000000000000000000000000AF
:1071E000000000000000000000000000000000009F
:1071F000000000000000000000000000000000008F
:1072000010B5054C237833B9044B13B10448AFF3E0
:1072100000800123237010BDE83B00200000000027
:10722000B84F090008B5034B1BB103490348AFF33E
:10723000008008BD00000000EC3B0020B84F0900B2
:10724000A3F5803A704700BF174B002B08BF134BC4
:107250009D46FFF7F5FF00218B460F461348144A61
:10726000121A4DF005FC0E4B002B00D098470D4B29
:10727000002B00D098470020002104000D000D488D
:10728000002802D00C4857F057FD4DF025FA200099
:10729000290035F0CDFC4CF0EFFC00BF00000800E9
:1072A000000000000000000000000420E83B002077
:1072B0007C40022039ED0700DDFE070030B50C4DA3
:1072C0000A44914200D130BD11F8013B83EA000429
:1072D00004F00F0455F8244084EA101080EA1313D8
:1072E00003F00F0355F8233083EA1010E9E700BFDD
:1072F000E85E08000368013304D04068431C58422C
:10730000584170470120704710B50B6804689C42D3
:1073100009D040684A68904205D0944203D0181AB8
:1073200018BF012010BD0020FCE740F30903B3F1B2
:10733000FF3F08BF0130C0F309000430704710B5AB
:10734000031F0439083053F8042F51F8044F8342C7
:1073500082EA04021A60F6D110BD036833B94268AC
:1073600022B98068B0FA80F0400970470020704769
:1073700008B503681B0D13F4E06306D00430FFF773
:10738000C3FFB0FA80F0400908BD1846FCE710B50D
:10739000836E1A6A436DD31A1944B1FBF2F302FBF0
:1073A0001311836D8B420BD94C09426E012301F0FE
:1073B0001F0103FA01F152F824300B4342F8243044
:1073C000002010BD30B5164A0368164C11F0805FDE
:1073D00018BF144683EA010525421FD043F3090470
:1073E00001341BD001EA02040F4A1A4042F09F42C6
:1073F00042F4E002944211D00A0D02F4E064B4F5C4
:10740000806F09D1C3F38924C1F389218C4203D34E
:1074100052B203EB82230360002000E0012030BD64
:1074200000FCFF7F00FC0F7000FC0F00024608B557
:107430000846FFF77AFF136818441060002008BD63
:107440000368013303600020704710B5836E1B6B27
:10745000044613B9C0682FF097F8A36E5B6B13B99D
:10746000E0692FF091F8A36E9B6B13B9606E2FF05B
:107470008BF8002010BD00002DE9F04F87B08A4640
:107480000292826E10990493136A139E8B42DDE977
:107490001148814640F2B980D269A319934200F2A3
:1074A000B480049B013B05930EB93046AAE0BAF1C3
:1074B000000F3ED0DAF80030109A9A4239D1DAE95A
:1074C000015205EB020BA34533D9A54211D8ABEB12
:1074D000040BB345DAF80C1028BFB346651B4046D1
:1074E0005A4629444DF0AEF9D8445C44A6EB0B064D
:1074F000DAE72D1BB54228BF3546029B109A1B6860
:107500009A421CD1029BD3E901120A44944216D23A
:107510008C4210D3121B9542DB6828BF1546611AB6
:1075200040462A4619444DF08DF9A8442C44761B58
:10753000BAE73546E1E7091B8D4228BF0D46049B9B
:10754000D9F86800B3421ED84269B4FBF2F302FBDB
:107550001343C3B9964216D3B5FBF2F302FB1353A0
:10756000A5EB030BCDF800B00393436810991F46B9
:1075700022464346B847002844D1039B5D1BD844AC
:107580005C442E4490E7036A109A9A4205D3204B3C
:10759000204A5A2120484CF043FB029A109B13606A
:1075A000D9F8683002995B69B4FBF3F203FB12432C
:1075B000E21A4A60D9F868500599D5F814C001EB71
:1075C0000C002044B0FBFCF10CFB1101401AE969EE
:1075D0001B1B884294BF1B185B18A96A8B4228BFEB
:1075E0000B4602998B60D9F868000093CB68456818
:1075F0001099A847002803DD084B064A6521C9E712
:107600003FF452AF07B0BDE8F08F6FF05300F9E7D9
:107610002C620800A4660800285F08006B5F080061
:1076200030B5154B016889B0044605AD08201B68CC
:1076300007934FF000038B6E039002955068019002
:10764000126800920A46DB6910311046FFF714FFFA
:1076500030B9211D2846FFF757FE003818BF01201A
:10766000054B1A68079B5A404FF0000301D030F0D9
:1076700049FB09B030BD00BF4C4002202DE9F04F5E
:107680002DED028B95B015460A93219B0993229B01
:107690000B93239B08EE103A924B1B6813934FF009
:1076A00000031368826E126A934207460C4680F00C
:1076B000E18169688A4240F2DD8100214FF00408CF
:1076C0000FAACDE901120093CDF80C804346024683
:1076D000CDE90F11FFF7D0FE064610B110F1540F9F
:1076E00014D1CDF80C8010AB4FF000080293CDF808
:1076F00004806B6800933A46042341463846FFF7FE
:10770000BBFE064660B110F1540F57D0754B1A6896
:10771000139B5A404FF0000300F0AF8130F0F2FAB3
:10772000DDE90F31C91A0029D4BF0021012155F824
:107730002130236081F00103079355F82330636003
:1077400014AB03EB81014FF0FF3651F8143CA360FA
:107750000023E36002230893634A92E8030011AB1D
:1077600083E80300042204F108014FF0FF30FFF723
:10777000A5FD0023CDE905330490B0464FF0FF3955
:107780009A464846FFF7D1FD0DF1300B8244CDE912
:1077900001AB04220392BB6E22680092DB693A4679
:1077A00000213846FFF768FE054660B115F1540F19
:1077B00040F03E814FF00003A37527E04146B6E755
:1077C00001230893C8E7594604980422FFF776FD81
:1077D0000C9B04901BBA89EA030BBBF1000FCDF898
:1077E00030B03DDA4FEA195A0AF4E06ABAF5A06FF0
:1077F00009D1BB6EE5689869B5FBF0F300FB135542
:10780000B5FA85F56D0905F00100A075E368002B58
:1078100000F01881214607F13C00FFF7A9FD48B1AF
:10782000FB6BC6F38922C3F389239A4240F002819D
:1078300046F00046099B3BB1A28AC6F389239342D6
:1078400028BF1346099A1380002EBFF65FAFA38AA4
:10785000C6F38926B3428CBF6FF00106002655E7B8
:107860005846FFF762FDBB6EDB6950449842A1D8D1
:107870004FEA1B5202F4E062B2F5A06F40F0828042
:10788000042203920DAA02920AF1040201922268D4
:10789000009229463A463846FFF7EEFD0546002895
:1078A00084D10D9B049A934284D10C98030D8BEAEA
:1078B000C37BFB6A5340FB62FFF737FD059BA38246
:1078C0005044119BA361C4E9030B129BE3614FF089
:1078D000FF32069BE375049243464646D9469846D6
:1078E0004FE700BF4C4002200066080004980122C8
:1078F0000DA9FFF7E3FC09F1010904900C98FFF7CB
:1079000014FD4845236817D9012103910DA902915F
:1079100009EB0A01CDE90031BA6E0021D36938467E
:107920003A46FFF7A9FD05460028DFD010F1540FB5
:107930007ED14FF00003A3750C9B1A0D12F4E06189
:1079400023D1059AC3F389239A4201D801330593C1
:10795000209B0C9981EA03090A9B19EA030951D17A
:1079600023680D930AF104030E9318EE100A0B9B83
:107970000DAA9847051E42DA15F1540F58D184F824
:10798000169043E74FF00409B8E7B1F5806F1DD1B9
:10799000059851B240FA82F292B205923A4A08EA48
:1079A000020242F09F4242F4E002934202D148F0C8
:1079B0000048CDE7B8F1FF3FCAD0C3F38923C8F32D
:1079C00089229342C4D808EB8128C1E7B1F5C06F82
:1079D000BED102F001030822039211AA02920AF119
:1079E0000402019206932268BB6E0092DB693A465C
:1079F00000213846FFF740FD5430A9D1DAE60C9B50
:107A000003D198464346B04667E7204988EA030217
:107A10000A420AD0022DF5D1C8F38922C3F3892185
:107A20008A42EFD343F00048ECE74FF0FF38E9E734
:107A30002E466BE6711C3FF4FDAE9A4288BFA6F558
:107A40008066F7E6079914A800EB8101D4E90023CA
:107A500051F8141CA16008990129C4E900327FF48F
:107A6000AFAE0B490B48CDE900210B4940F2EA3299
:107A70004DF032FB6FF0530648E6304615B0BDECD2
:107A8000028BBDE8F08F00BF00FC0F0000FCFF7F01
:107A9000E0250900745F0800285F08002DE9F04721
:107AA000214BDFF88880DFF88890DFF888A088B065
:107AB0001B6807934FF0000300250123C2E906531A
:107AC00006460F46144604F118021046FFF712FC52
:107AD00010B16FF0010018E0B36E1B6AB5EB530FE5
:107AE0001CD23B6805937B68069304ABCDE9028307
:107AF000CDE9009053462146304601350496FFF704
:107B0000BDFD0028DFD0831CDDD0074B1A68079B22
:107B10005A404FF0000304D030F0F4F86FF05300F7
:107B2000F3E708B0BDE8F0874C4002202176020060
:107B300008000020FF03F07F1FB50023CDE90233CA
:107B400001934FF0FF330093FFF798FD05B05DF808
:107B500004FB2DE9F04101230024C2E90643064657
:107B60008846154602F118073846FFF7C3FB10B1E7
:107B70006FF0010011E0B36E1B6AB4EB530F0ED22D
:107B8000414638460134FFF7BFFB30B13A4629463B
:107B90003046FFF7D1FF0028E6D0BDE8F0816FF056
:107BA0005300FAE72DE9F04F95B01E46BDF8883036
:107BB0000E93BDF88C300F93BDF990300A93259B3E
:107BC0000B93674BDDF878A0DDF898B01B68139332
:107BD0004FF00003209BC3F38F230D930A9B9B025E
:107BE0000746884691460C933046FFF79EFBD8F82F
:107BF0000C3000EB09049C4258D210AACDE9014296
:107C00000423D8F80020009203933A460021384616
:107C1000FFF732FC002840D1109B1BBA5E40D8F819
:107C20000030119346F00046231D10961293A14692
:107C300011AD219B109C5C40209B1C40494B1C407B
:107C4000D2D10D9B002B3FD11099C1F30A53002BC9
:107C5000CAD040F20112934257D10B9A0792C1F356
:107C600009030A9ACDF820B0C1F38921C91A114439
:107C70005A1CCDE904323C4B4FF00052CDE90232A0
:107C800009B200220691CDE900224FF0FF332946C8
:107C90003846FFF787FF0028A6D0314B1A68139BA0
:107CA0005A404FF0000357D030F02CF81F9B002BA8
:107CB00050DDDAF8003010931F9BDAF80450013BD6
:107CC0000AF1080A1F93B4E710AB0893274BCDE9DC
:107CD00006431F9BCDE90444CDE900A3CDE902444E
:107CE00033464A4641463846FFF75CFF0028D4DB5E
:107CF0007FF47AAF109B0E9AC3F389239A423FF622
:107D000073AF0F9A9A429FD86EE7B3F5817F1AD16D
:107D10001099C1F309039C42BFF466AF0A9B6A68DD
:107D2000C1F389211944AB6843EA81212B7803F51B
:107D3000407341EA035158460B9B98470C35002885
:107D4000ABD10134E4E70C9B2A46194458460B9BFF
:107D50009847A0E70020A0E715B0BDE8F08F00BF6E
:107D60004C4002200000F07F00FC0F60C573020051
:107D70002DE9F04F89B09946139B05934E4B1B6834
:107D800007934FF00003D1E9038306463C30934646
:107D90000693FFF7EDFA0F46CBF3892A002800F08F
:107DA0008380BAF1000F00F08180F36B434CC3F382
:107DB0008922C9F389239A4288BF0024069D284658
:107DC000FFF7B3FA031D434534D80423A8EB00089A
:107DD000039306ABCDE901833B680093324604234D
:107DE00000213046FFF748FB30BB069B1BBA6B40B7
:107DF00023F000430693BAF1000F29D02A0D02F4B4
:107E0000E063B3F5806F23D1A9EB0403C3F38920AA
:107E1000C5F3892188421BD323F07F4323F47003E9
:107E200023F47F7323F0030343F0804343F4801370
:107E3000AB420AD16FF001001F4B1A68079B5A40F2
:107E40004FF0000334D02FF05DFF52B204EB8224D8
:107E5000A9EB0401694011EA0B01AFD145F3090315
:107E60000133E7D0149BC5F30909994528BF99460A
:107E7000059B0293129BCDF80C900433434401936D
:107E80003B68009332464B463046FFF7F5FA002830
:107E9000D2D1149BA3EB0902059B4B440146184623
:107EA0004CF0E6FD6019C7E7044687E7544685E7CE
:107EB00009B0BDE8F08F00BF4C40022000FCFFFF7E
:107EC0001FB5C3F309040294069C01940024009496
:107ED000FFF74EFF04B010BD30B5114B87B002ADB7
:107EE0001B6805934FF0000314460E4B0E4A009595
:107EF000FFF7E6FF00280BDA831C08BF0020084BC1
:107F00001A68059B5A404FF0000307D02FF0FAFE85
:107F100020462946FFF713FA0020F0E707B030BDEE
:107F20004C4002200C00F07F0000F07F2DE9F04F64
:107F30008DB081460592514A12680B924FF00002B3
:107F4000059A0493166888461BB1049A40F2FF33E1
:107F50001380D9F82030C8F81830D9F82430484CAC
:107F6000DFF834A1C8F81C30514630464FF02EFAE5
:107F70003518514628464DF02FFD0128074605EBE0
:107F8000000625D13F49024628464CF029FC00282E
:107F9000EAD0B34601235146584606934FF016FAED
:107FA0008344514658464DF017FD0246C0B10228A1
:107FB000069B12D1CDE90603334958464CF010FC1C
:107FC000DDE9062348B9013B08D10BF10206CBE7F6
:107FD0000228DED12C490246D6E701339344DAE782
:107FE0002B78002B39D0059B1D60230D022B3DD132
:107FF000C4F3892440F2FF339C4208F1180B0BD0E4
:10800000224B234ACDF800B043EA84234146484638
:10801000FFF756FF041E20DB2F2128464DF0AAFA59
:1080200008AA049B039200281A4A009718BF00234D
:10803000CDE9013241464FF0F0435A464846CDE97A
:1080400008950A97FFF71AFB041E06DB8CD198F8F7
:108050001730002BE0D16FF00104084B1A680B9B1E
:108060005A404FF0000304D02FF04CFE6FF0130481
:10807000F3E720460DB0BDE8F08F00BF4C40022072
:1080800000FC2F00AFDF0800B1F10800080000205D
:1080900000FC0F70CD8202004A850800F0B51C4636
:1080A000264B87B01B6805934FF0000340F2FF3367
:1080B0009A4205460E4604F1080C0FD1204960464D
:1080C0004DF02CFC0223237000201C4B1A68059BEA
:1080D0005A404FF000032ED02FF014FEC36ECDF89F
:1080E00000C0013343EA82239702164AFFF7E8FEF5
:1080F0000028EADB03AB020D009347F00053227027
:1081000043F00803104A31462846FFF7D9FE0028FD
:10811000DBDB40F20223B3EB105F4FEA105202D1D7
:10812000049B6360D0E740F201239A4204BFC0F38E
:1081300009006060C8E707B0F0BD00BF4C400220F6
:108140004A85080000FC0F7800FC0F7008B5036B2F
:10815000C3F3090242B9002906DA094B094A0A4861
:1081600041F208014BF05CFD1944C1F30903003BE7
:1081700018BF012321F0004141EAC371016308BD2A
:10818000AA5F080091660800285F08002DE9F04FFB
:1081900087B0DDE9114A1546826E139ED269894681
:1081A000A119914207464CD8DFF89CB003F1FF3883
:1081B0000EB9304642E02B68E868023316D1D5E9A3
:1081C00001120A44944211D28C420FD3121BB242C4
:1081D000A4EB010128BF32460144504605924CF001
:1081E00031FB059A92441444B61AE1E76FF001039B
:1081F0002B60BB6E5B69B4FBF3F203FB1242A21A65
:108200006A60D7F868C0DCF814E008EB0E0323447A
:10821000B3FBFEF10EFB11315B1ADCF82810009263
:108220008B4228BF0B46CDE90103AB605A46109B39
:1082300049463846FFF79CFD0028B9DA07B0BDE88B
:10824000F08F6FF05300F9E700FCF7FF2DE9F04FD6
:1082500089B0064605931C4B139D1B6807934FF08E
:108260000003149B8846EF182C4605EB02094FF0DB
:10827000010A0DF11B0BBC4201D1002018E0129B3A
:108280005B1B23440193059B0093CDE902BAA9EB44
:108290000403424600213046FFF7EEF840B914F8D7
:1082A000012B9DF81B309A42E5D094BF022001209B
:1082B000054B1A68079B5A404FF0000301D02FF07E
:1082C00021FD09B0BDE8F08F4C40022030B50446D6
:1082D000C1F30905A368216885B0AB4228BF2B46CE
:1082E000104602931A46636801934368009303683B
:1082F0000846FFF7ABFF28B9A368AB4202D02CBFFA
:108300000220012005B030BDF8B5C6690D68083EF1
:10831000B5420F4613D3B5FBF6F001385CF05AFCBA
:10832000841CA5EB8404B4FBF6F420465CF052FCFC
:10833000A5EB800004FB160038602046F8BD002045
:10834000FCE700002DE9F04F89B0DDE913A90592A3
:10835000274A06468846126807924FF000027BB90A
:108360004FF0FF32CAF80020C9F800300020204B3F
:108370001A68079B5A404FF0000335D02FF0C2FC1B
:10838000013B06A9806E0693FFF7BEFF12A90546C2
:10839000B06EFFF7B9FF0DF1140B0746AF42059918
:1083A00003D3129BCAF80010DEE7EC1BB4FA84F387
:1083B00095FAA5F2C3F11F04B2FA82F2944228BFE3
:1083C00014460423CDE902B3A300CDE900134246CD
:1083D000042300213046FFF74FF80028C7D10123BE
:1083E00003FA04F42D1BD9E709B0BDE8F08F00BFF4
:1083F0004C4002202DE9F04F89B09046DDE912296A
:108400009B46254BDDF850A006460F461B68079398
:108410004FF0000392B3013A806E049204A9FFF773
:1084200073FF044659465046C847024630BB2CB33A
:1084300004F00105C5F102018B0005A9CDE9010198
:1084400042460393CDF800B039463046FFF714F8A2
:10845000024698B9E34303F0010B934507DC08ABF0
:1084600003EB8B03023D53F80CBC2C44DAE705996F
:108470005046C84701220028EFD00246064B196833
:10848000079B59404FF0000301D02FF03BFC1046F2
:1084900009B0BDE8F08F00BF4C40022008B5026A69
:1084A0008A4205D8074B084AE92108484BF0B8FB37
:1084B000C3689847002803DD054B034AEB21F4E726
:1084C00008BD00BF2C62080063660800285F080032
:1084D0006B5F080010B50C46826AE068FF214CF023
:1084E000C7FA4FF0FF33236010BD000038B5816636
:1084F0004D69044635B9614B614A40F69251614875
:108500004BF08EFB8A6922B95F4B5D4A40F693516E
:10851000F5E7886A20B95D4B594A40F69451EEE779
:10852000B0FBF5F305FB130323B1594B544A40F656
:108530009851E4E7B0FBF2F302FB130323B1554B70
:108540004F4A40F69951DAE7CA69B2FBF0F300FBF3
:10855000132323B1504B4A4A40F69A51CFE7A2F178
:1085600008054FF0FF33B3FBF5F3013BB3FA83F398
:10857000C3F12003B2EB830F04D2484B404A40F6CC
:108580009D51BCE74B6A23B9454B3D4A40F6A65185
:10859000B5E70B6BABB1E360A36E5A6BE2B1E2617E
:1085A000A06E2146FFF796FFA06E04F11001FFF7C1
:1085B00091FFA36ED86AB0B93A4B314A40F6C45124
:1085C0009DE72DF0E6FFE0600028E5D12046FEF7AC
:1085D0003CFF6FF00B004FE0986A2DF0DAFFE0618E
:1085E0000028DDD1F2E7410702D19B6B9A0704D046
:1085F0002D4B234A40F6C55181E74BB16366A36E0C
:10860000DA6BFF2A0AD9294B1D4A40F6D25176E788
:108610002DF0BFFF60660028F1D1D7E742B1E266D6
:108620001A6C002A06DA224B154A40F6D85166E742
:10863000FF22F4E708BF6FF0004222675A6C40F255
:10864000FE339A4204D91B4B0D4A40F6DE5156E7E1
:10865000002A18BF1346002063674FF0FF33C4E9B8
:108660000833C4E90A00C4E90F00C4E90C00C4E9F6
:1086700012006064A063206538BD00BFDC5F0800A5
:1086800008660800285F0800F55F08000E60080013
:10869000286008005860080088600800B960080079
:1086A00005610800216108003E6108009261080030
:1086B000AC610800CD6108002DE9F0430E46096861
:1086C0009946CB1C85B0074690463ED8806E036A1B
:1086D000994205D31F4B204A8E2120484BF0A0FA27
:1086E0008269B4681444013CB4FBF2F302FB134307
:1086F000E41A00948568F3687268A847051E03DDD4
:10870000174B154A9221E8E706D1B9F1000F07D1BE
:10871000B86E3146FFF7DEFE284605B0BDE8F083AF
:108720004FF0FF33C8F80030F3680193736800938B
:1087300002943368224641463846FFF787FD0028F9
:1087400005DBE5D06FF05305E6E70025E4E70546D5
:10875000E2E700BFE86108004A660800285F0800F9
:108760006B5F08002DE9F74FDDE90C8518F1020F6A
:108770009146DDE90EB7826E06460C469A4608D051
:10878000136A434505D82A4B2A4ABF212A484BF091
:1087900047FAD269EB19934230D9284B254AC021B8
:1087A000F4E7236843452FD16068A8422CD8B26E05
:1087B000926A0244AA4227D9521BE368BA42A5EB47
:1087C000000028BF3A465946184401924CF03AF846
:1087D000019A636815449344BF1AA268EB1A934246
:1087E00038BF1346A360B26E926A9A4206D15346CE
:1087F0004A4621463046FFF75FFF10B9002FD0D11F
:10880000384603B0BDE8F08F013303D00C4B094A62
:10881000DD21BBE7C4F80080B36E9A69B5FBF2F3C3
:1088200002FB1353EB1A63600023A360E6E700BF6B
:108830000E62080057660800285F08004A620800B8
:108840006D620800F0B585B0CDE902231D464B6886
:1088500001930B6800930C4617460023024600F173
:108860001001FFF77FFF064640B9E0682A46394607
:10887000FEF724FD6368E0602B446360304605B07A
:10888000F0BD00002DE9F04F9946314B89B0074605
:1088900010461B6807934FF00003FEF746FD4B6838
:1088A00090464A69034493420C46054649D88B6872
:1088B00028F0004A8AEA03031BBA069306AA042397
:1088C0003846FFF7BFFF064668B9B8F1000FA5F1BB
:1088D000040511DB2B464A4621463846FFF7B2FF16
:1088E00068BBC4F808A01A4B1A68079B5A404FF09F
:1088F000000329D02FF006FAA8460DF1170BA5EBBF
:108900000803B8F1000FECD00122CDE902B2D9F88A
:10891000042013440193D9F8003000933A464346AB
:1089200000213846FEF7A8FD48B901235A462146E2
:108930003846FFF787FF08F1FF380028DFD00646EA
:10894000D1E76FF01B06CEE7304609B0BDE8F08FE7
:108950004C40022013460A46D0E90001FFF792BFBF
:108960002DE9F04F784B8DB01B680B934FF000034F
:108970004B680593CB680793836E9A69059BD7185C
:108980000737B7FBF2F302FB1373FF1AA7F10803D3
:1089900080460D4640F2FE3B06936B68BB4219D3FE
:1089A00041464FF0FF3341F8103B4246002340461A
:1089B000FFF782FE0446002840F0B680D8F8680031
:1089C00003699847041E68DD604B614A6148B6211F
:1089D0004BF026F903F1040AA7EB0A035B4594BFA9
:1089E0000AEB03060AEB0B06BE4203D2069B9E422D
:1089F00028BF1E464FF0FF3308AACDE90162089355
:108A00002A68009204230393424600214046FEF761
:108A100033FD044618B110F1540F40F08580089BD7
:108A2000E8681BBA6FEA03094FEAD97303F5A0633C
:108A3000A6EB0A0646EA035646F47F26AB6846F4E0
:108A4000406609AC08965E402146042236BA099673
:108A5000FEF734FC0823CDE902436B6801932B68D1
:108A6000E8600A9000934246002308F11001404656
:108A7000FFF778FE0446002856D1089BC3F309028D
:108A8000111D09F000496A6889EA03030A44AB60D2
:108A90004FF0FF336A60EB607FE745D1059B2E699D
:108AA00003F1040ABE423FD20AF104034FF0FF393A
:108AB00006930DF1200B1AE0059B9E4202D1079B05
:108AC00099452ED10123CDE902B32B680093069B73
:108AD00001969B1B424600214046FEF7CDFC10BB91
:108AE000484601225946FEF7E9FB01368146069BBE
:108AF000B342E1D8B9F1000F1FD1A7EB0A0240F24F
:108B0000FE339A4294BF0AEB02060AEB0306BE420A
:108B100004D2A7F108039E4228BF1E4606F1040AAC
:108B2000C0E76FF053000446074B1A680B9B5A408E
:108B30004FF0000304D02FF0E5F86FF05304F3E793
:108B400020460DB0BDE8F08F4C4002206B5F08005E
:108B50002F660800285F080008B50B6B9B0206D43F
:108B6000044B054A054840F624414BF059F8486B40
:108B700008BD00BF90620800B0660800285F0800CA
:108B800008B50B6B9A0206D4074B084A084840F612
:108B900038414BF045F89B03C86A03D54B6B9842AC
:108BA00038BF184608BD00BF906208001166080073
:108BB000285F080030B58DB0104B01911B680B93F6
:108BC0004FF000031546002301AA03A90446FFF74E
:108BD000ADF9002806DBC0F389222B4603A9204605
:108BE000FFF75CFA054B1A680B9B5A404FF00003E5
:108BF00001D02FF087F80DB030BD00BF4C400220EF
:108C000070B58EB01D46204B03911B680D934FF03D
:108C100000031646002303AA05A90446FFF786F9B8
:108C2000002823DBC0F3892040F2FF33984206D1AD
:108C300004F1200205A92046FEF77EFFB0B9636F5C
:108C4000129A00959A4228BF1A4606F5407642EAE3
:108C5000065242EA802305A90C4A2046FFF730F964
:108C600000280CDA831C08BF6FF03C00064B1A6822
:108C70000D9B5A404FF0000304D02FF043F8C0F38F
:108C80000900F3E70EB070BD4C40022000FCFF7FEE
:108C9000FEF7DBBB2DE9F0436C4B97B004461B6835
:108CA00015934FF00003FFF721FC0546002842D141
:108CB00001461C220DA84BF0DBFE654FDFF8B881A2
:108CC000DFF8B891012314932E4613A8FEF712FB88
:108CD000002839D004F12000FEF70CFB002840F0FA
:108CE000AD8004F130063046FEF737FB60B9594BD2
:108CF0000293A36B0193636B00935749236B57480F
:108D000040F6D5624CF0E8F9236B03EBD373236391
:108D100096E8070004F13C0383E80700A26EE36ACB
:108D2000D169B3FBF1F001FB103363650023C4E9A3
:108D30001633136A2366454B1A68159B5A404FF049
:108D400000037ED02EF0DEFFA36E1B6AB6EB530F3E
:108D500071D20823069304ABCDE90283404B019006
:108D6000009313AA3F4B0DA92046CDE90447FEF717
:108D700085FC002806F1010624DB52D040F30900EF
:108D800001304ED00D9B23620E9B636207AB0093B4
:108D9000344A4B460DA92046FFF792F8002811DB14
:108DA000079A130C022B91B200D181B1294901918C
:108DB00092B229492C48009240F69D624CF08CF901
:108DC0006FF0150005462046FFF762FFB3E70A9BE8
:108DD0005BB1E26E934207D91E492448CDE90021D8
:108DE0001D4940F6A662E9E7E3660B9B5BB1226F83
:108DF000934207D917491E48CDE90021164940F68C
:108E0000B162DBE723670C9B5BB1626F934207D9CA
:108E100010491848CDE900210F4940F6BC62CDE762
:108E2000636704F130020DA92046FFF755F80028CA
:108E30003FF44BAFC6E76FF05300C3E76FF0150583
:108E4000C1E7284617B0BDE8F08300BF4C400220C0
:108E5000AB620800E0250900285F08007463080081
:108E60000800F00F00FCFF7FB4620800DE6208001B
:108E70001063080042630800CD8202001800102031
:108E80002DE9F04F93B004460593554BDFF854910C
:108E9000DFF854A10D46164600211C2209A81B68C4
:108EA00011934FF000034BF0E3FD012310934FF0BB
:108EB00000080FA8FEF71EFA20B1A76A002F5BD1A9
:108EC000384641E0A36E1B6AB8EB530F80F08180F7
:108ED0000F99304608F10108A847002834D11099AD
:108EE0003046A84780BB0FAA09A92046FEF724FEFA
:108EF00050BB07460DF11C0BBDF83820BBB29A429F
:108F0000D7D9BBB2CDF800B049EA8323524609A9AC
:108F10002046FEF7D5FF002803DA831C14D1013761
:108F2000EAE740F20222B2EB105F4FEA105314D18D
:108F3000089B0093CDE90156079B2246002120465D
:108F4000FFF758FA0028EAD0254B1A68119B5A40BF
:108F50004FF0000340D02EF0D5FE059A002ADED057
:108F6000B3F5007FDBD107993046A8470028EBD145
:108F700008993046A847E5E7BB79012B01D03F6847
:108F80009CE73B6B03F48813B3F5803F13D03B6B36
:108F900003F49013B3F5003FF1D1CDE901567B6B9B
:108FA0000093BB6B224607F140012046FFF722FAEF
:108FB0000028E4D0C8E7CDE90156FB6A0093BB6AFC
:108FC000224607F140012046FFF714FA0028DED0C0
:108FD000BAE76FF05300B7E713B0BDE8F08F00BFFA
:108FE0004C4002200800002000FC0F702DE9F341E6
:108FF0003A4E04460D460127A36DD4E91712994253
:109000000ED1616D0B44002A3AD1354A00923549A0
:1090100035484FF4F7724CF05FF86FF01B0026E014
:10902000481CE065013A606E22664FEA511C01F06F
:109030001F0250F82C0007FA02F20242DDD1A26EA4
:10904000636D126A0B44B3FBF2F102FB11332B6028
:10905000A66D0125E36DB3423ED0616E5A0903F05F
:109060001F0051F8222005FA00F0104002D102B092
:10907000BDE8F0810133E365236E013B2366E9E738
:10908000A16E086AB3FBF0FC00FB1C336365CB6A7E
:10909000606EDB004FF00008934294BFA365A265A9
:1090A000C4F85C80CA6A41464BF0E2FC01232246C8
:1090B00031462046FFF7E4FE00289DD0A26EE36A09
:1090C000D169B3FBF1F501FB1533C4E91538C4F8D8
:1090D0005C80136A2366CAE70020C8E78F7302002A
:1090E000E0250900285F0800AC6308007FB50C4646
:1090F00004310646FFF77AFF054628BB2146304675
:10910000FFF774FF0546F8B92246042342F8080F1A
:10911000CDE9022322680190009201463246304692
:10912000FEF7AAF910B110F1540F10D1A368013362
:1091300023F001030422A3604FF0FF33C4E90323AB
:109140000022C4E90523E361284604B070BD05464A
:10915000FAE700002DE9F04F484B89B01B680793F0
:109160004FF000030B6B9B0204460D461AD5DFF847
:1091700024B106A92046FFF739FF064648B90699EB
:10918000A06EFFF78BF9064600285FD010F1540F50
:1091900062D03A4B1A68079B5A404FF0000368D0E0
:1091A0002EF0B0FD364B374A374840F611214AF0D1
:1091B00037FD2A6BCDF80C800DF1170912F4801FD2
:1091C000CDE90179A3EB07031CD0AA884BEA8222E0
:1091D000009205F1080152462046FEF7D7FF78B904
:1091E000069B0093CDE9029801970123224604F1E2
:1091F00010012046FFF7B6FA60B110F1540F2BD0E2
:109200000646C6E7AA6B0092514622462046FEF764
:1092100033F9E4E70137EB6BBB42CAD8A36EE169CF
:109220009A6AE86C4BF00EFB23692B6463696B64EC
:10923000A369AB64A06E04F11001FFF74BF9069B24
:10924000AB632B6B43F400332B63A2E7074605F1B6
:10925000400A4FF00108DEE70C4B00930A49069BD9
:109260000B484FF425624BF037FF4FF0FF3323617B
:109270007FE7304609B0BDE8F08F00BF4C400220C8
:109280009062080070660800285F0800E025090069
:10929000D4630800000010202DE9F04F8FB09B46EA
:1092A0009E4B06921B680D934FF000030B6B9F02C1
:1092B00006460C4606D49A4B9A4A4FF434619A48B3
:1092C0004AF0AEFC03F00302012A04D1974B954A01
:1092D00040F64131F3E75D031BD4276B390527D4F2
:1092E000D4F83480326F08EB0B01914200F27881A0
:1092F00017F4003722D0236BDA0231D4CDF810B046
:10930000049A236B002A50D123F4002323635D4683
:1093100004E000F06DF905460028DED07F4B1A68A6
:109320000D9B5A404FF0000300F05D812EF0EAFCE7
:10933000E26A616B8A4288BF6263D1E7E36A98455B
:10934000D9D9636301230CAA214630468DF83070C9
:10935000FFF7A2FF051EE1DB636B9845F2D8CAE771
:10936000606BE36AB16E00EB0B029A4238BF1A469B
:10937000CB69896A40F2FE35A9424FEAD30328BF80
:1093800029468B4228BF0B469A42B7D9E063B36E99
:109390001B6A336621463046FFF7DCFE236B054629
:1093A00020BB23F480132363A8E713F4003204D016
:1093B000B16EE06BC96988424FD1DB0200F1FB80DE
:1093C00004F1400AD2B9636BC3B104F13C020292CA
:1093D000013B04F13802019200935146D4E90A237B
:1093E0003046FEF7AFFF054620B1236B43F4002360
:1093F000236393E7B06E5146FFF76CF8B36E1B6AB8
:109400003366A36B0793636B05930AA93046FFF796
:10941000EDFD05460028E8D10A99B06EFFF73EF849
:10942000054678B115F1540FDFD1414B00933E4909
:109430000A9B40484FF412624BF04EFE4FF0FF3350
:109440002364E2E7059B002B2DD10A9BA363059BB8
:10945000E363236B43F400332363B36EDF69E36B91
:10946000FF1A049B9F4228BF1F4604F14008069B39
:109470000293E36B0193A36B00930397012332469E
:1094800041463046FFF76EF90546002800F0988007
:1094900010F1540FA9D121463046FFF75BFE054677
:1094A0000028E4D0A1E7059BB06E013B0BA90B930C
:1094B000FEF72AFFB26E0B9BD269013393420B93E6
:1094C00063D100F1010898FAA8F8B8FA88F808F111
:1094D00001030893079B0C93A9460CAF4FEA89033D
:1094E00009930423CDE90273099B01930A9B00931E
:1094F0003246012351463046FFF734F9054600282D
:1095000090D1C84546D1089B09F101094B45E5D8E2
:109510000A9BA363089B9B009AE700BF4C40022074
:1095200090620800CC660800285F0800F863080015
:10953000E0250900D4630800079A0092CDE902797A
:10954000CDF80480A3EB0803324600213046FDF736
:1095500093FF054600287FF448AF0A9B0093CDE9AE
:109560000279CDF804800123324651463046FFF798
:10957000F9F8054600287FF455AF08F101080B9B68
:109580004345D9D80A9AA26362E7A8464FF0010979
:109590000CAFF4E70423CDE90273099B01930C9B04
:1095A00000930146042332463046FDF765FF054629
:1095B0000028A8D019E76FF00103A363636B47E7A6
:1095C000636B3B446363E36B3B44E363069B3B4455
:1095D0000693049BDB1B0493B36E1B6A33668FE612
:1095E0006FF01A059AE628460FB0BDE8F08F00BF6D
:1095F0002DE9F043474B9BB01B6819934FF00003D4
:109600000B6B054698020C4606D4434B434A44482C
:1096100040F664214AF004FB590308D5DA0258BF2A
:109620004FF0FF3223F4802358BF22642363216B61
:1096300011F400303AD011F48011666BE76A55D10D
:10964000542204A84BF014FAA36ACDE90E37354B27
:10965000CDE9103695E80F0014AF87E80F004FF002
:10966000FF372F60626BE36A9A4228D3DFF8BC9021
:10967000DFF8AC802C4F01232A4604F14001284634
:10968000FFF71AF8002835D010F1540F0ED14146DB
:10969000A36BCDF8009040F69D2238464BF01CFDA0
:1096A00021462846FFF756FD0028E4D0194B1A68DA
:1096B000199B5A404FF0000329D02EF023FB0123C1
:1096C0000DF10F0204A9284600F032F80028EDDB66
:1096D00001230DF10F0221462846FFF7DDFD00288A
:1096E000E4DB2B680133BDD01497BAE7BE422CBF30
:1096F00066636763A36BA362636BE362236B23F40C
:10970000003343F48033C4E90C360020CEE71BB0AD
:10971000BDE8F0834C400220906208003B660800E0
:10972000285F080001002000D4630800E02509003C
:109730002DE9F04F1D460B6B90469A0285B0074607
:109740000C4606D43D4B3E4A4FF42F613D484AF04B
:1097500067FA03F00302022A04D13B4B384A40F671
:10976000F121F3E79E0305D4666BE26A964208D3C3
:10977000002003E0FFF73CFF0028F5D005B0BDE86E
:10978000F08F961BAE4228BF2E46DFF8C0B0B14620
:1097900004F1400AB9F1000F01D13046EEE7226B27
:1097A000510304D5BB6EE16BDB69994215D1D2023E
:1097B000636B36D404F13C02029204F13802CDE925
:1097C00000325146D4E90A233846FEF7BBFD002893
:1097D000D4D1236B43F480232363BB6EE26BDB693C
:1097E000216B01929D1A4D4528BF4D4611F4801101
:1097F000CDE902851AD0A2884BEA8222009204F1B8
:10980000080152463846FEF7C1FC0028B6D1636B0A
:109810002B446363E36B2B44E363A844A9EB050982
:10982000B8E76FF00102C4E90E23D2E7A26B009201
:1098300038465246FDF720FEE7E700BF9062080079
:10984000DB660800285F08001A640800000010208A
:10985000F8B51E460B6B9B0207460C46154606D410
:109860000D4B0E4A0E4840F6C3314AF0D9F9FFF7C6
:10987000BFFE38B93B6F36B9284683422CBF6063C0
:109880006FF01500F8BD012E606B01D12844F4E79C
:10989000022EF2D1E06AF9E790620800BE66080085
:1098A000285F080007B50C4B0C491B6801934FF06B
:1098B00000036A4600230093FFF7E2FA00B900981C
:1098C000054B1A68019B5A404FF0000301D02EF05F
:1098D00019FA03B05DF804FB4C4002204174020009
:1098E0002DE9F04FA7B0CDE90A23309B0C93794BBB
:1098F000BDF8C470BDF8C890DFF8F4B11B682593BB
:109900004FF000030B6817934B68189305460E46FB
:109910004FF0000AA9EB0708B8F1010F58DCB36853
:109920000133B360AA6E526A002A36DD013242F07A
:109930000102B3FBF2F102FB113373BB01241DA939
:1099400030461D931E94FDF7DFFC002840F0978001
:109950002846FFF7A7FF041EC0F28580AB6E1B6A86
:10996000B4EB530F19D25C4B5C49009340F2056293
:10997000B3685B484BF0B0FB0C9B0093CDE90179D9
:10998000DDE90A233146284601F01CF80446002888
:1099900000F09D8010F11C0F65D14FF000080023EE
:1099A0004FF0FF3BCDE9123BCDE914B37168A86ECF
:1099B0001191C369083B1693FEF770FD0446002819
:1099C00000F0988014F1540F4DD14FF0000A57E089
:1099D00011AB0893434B07937B421BB2CDE9059330
:1099E0000B9B01930A9B0093CDE903A70C99CDF83B
:1099F00008B04FF0FF3300222846CDF844A0FEF710
:109A0000D1F8044678BBB8F1FE0F12DCAB6ED3E997
:109A10000602431E03EB5203B3FBF0F100FB1131CE
:109A20005B1A243A934228BF1346119A9A427FF652
:109A300076AF07EB68080C9B00931FFA88F8CDE916
:109A40000189DDE90A233146284600F0BBFF0446C0
:109A500098B110F11C0F06D1AB6E119ADB69243B53
:109A60009342BFF45CAF1B4B1A68259B5A404FF0E2
:109A7000000300F0E0812EF045F9C1464AE7A24616
:109A80004FF0FF332B61BAF1000F08D1124B009356
:109A900012497368144840F29A624BF01DFB002390
:109AA0004FF001081DA93046CDE91D38FDF72CFC0B
:109AB000002840F0C480084B0093084973680B48A5
:109AC00040F29F624BF008FB6FF01B04CBE7B946F6
:109AD00063E700BF4C400220E0250900285F080032
:109AE0003C6408002D740200D463080093640800ED
:109AF00000FC0F400DF1440A042306F10802514610
:109B00002846FEF79FFE044600287FF45BAF0FABAC
:109B10000893A24B07937B421BB2CDE90593A04B60
:109B200002930B9B01930A9B0093CDE90307024626
:109B30000C995B462846CDE90F5AFEF733F80446E8
:109B400000287FF43FAF06F1180318460D93FDF788
:109B5000D1FB0D9B68B9F27D924902F5C06241EAE2
:109B6000025228465146FEF78DFE044600287FF437
:109B700029AF0023CDE91D331F93B8F1000F09D1A0
:109B800005F13C011DA8FDF7DAFB05F130011DA828
:109B9000FDF7D5FB05F1480B59461DA8FDF7CFFB96
:109BA0001D9B23F47F7323F003031DAA314628462F
:109BB0001D93FEF791F9044600287FF454AF1DA8C9
:109BC000FDF7CBFB48B9784A1DAB51462846FEF756
:109BD00059FE044600287FF4F5AE51462846FEF7AC
:109BE000BFFE044600287FF4EDAEAA6E129B926978
:109BF000B3FBF2FA02FB1A3ABAF1000F06D06B4B34
:109C00006B4A6C484FF4D1614AF00AF8D6E900215A
:109C1000F360A9EB0707139BB782C6E90012336113
:109C2000A864CBE90100B8F1000F40F0CB8005F14A
:109C30003C03303595E8070083E8070013E7311D42
:109C40002846FFF7D3F9044600283FF4A8AE10F1E8
:109C50001C0F7FF408AFBAF1000F3FF404AFD046F9
:109C60009DE608F1080117A8FDF74EFB28B93368F7
:109C7000C8F808307368C8F80C3098F80630022B22
:109C80000BD108F12C0117A8FDF73EFB28B933686A
:109C9000C8F82C307368C8F83030D8F80080AEE0CF
:109CA00001212846FEF752FA1DA905F13000FDF703
:109CB0005FFB10B32B6B3F493F48C3F3892B1E9BBF
:109CC000009340F6CE721D9BCDE901B94BF004FA2A
:109CD0002A6B3A4BC5F838801340C5E90C38C7F3F6
:109CE00089239B4505D2A7F58067354B43EA8B282E
:109CF00003E040F2FF339B45F7D10023CDE91A374B
:109D000019AA02231DA92846CDF864801C9600F0EC
:109D10009DF80746002840F08C804FF0FF31284620
:109D2000FEF714FA79E01DA905F13000FDF720FBDC
:109D3000D0B12C6B1E9B0093C4F389241D9B1D493D
:109D40001D4840F6F272CDE901494BF0C5F92A6B86
:109D50001A4BAF631340C5E90C3740F2FF339C4206
:109D60001CBF174B43EA842A00231A939DF88B30BB
:109D7000CDF864A003F5C0620A4B43EA0253CDE973
:109D80001B3619AA02231DA9284600F05FF80446D5
:109D900000283FF468AE07464BE000BF558902003B
:109DA00000FC0F4008FC0F000CFCFF7F6D640800F6
:109DB0001F660800285F0800CA640800FF030080CF
:109DC0000000F04F7368029333680193DFF87890D6
:109DD000189B1B4900931B48179BCDF80C904FF420
:109DE000D6624BF079F905F1200117A8FDF78CFA3E
:109DF00018B933682B6273686B62D5F82880B8F1A4
:109E0000000F7FF42EAF1DAA17A92846FDF746FEC6
:109E1000071EBFF645AFBA1C0BD11DAA17A92846CD
:109E2000FDF797FE074600283FF47DAF831C3FF403
:109E30001AAE3C4617E6204627B0BDE8F08F00BFBB
:109E4000285F08000E650800E02509002DE9F04FA5
:109E50009946A34B866AA5B005460C4690461B68FA
:109E600023934FF0000356BBA446BCE80F0013AF8A
:109E70000FC79CE80F0087E80F00434608EBC901B5
:109E800040F2014040F2FF478B424ED1002E00F0DD
:109E90008280A38A002B7ED11BAA21462846FDF78B
:109EA00058FE844600286BD010F1020F73D013AD1A
:109EB0000FCD0FC495E80F0084E80F002BE006F1EA
:109EC0000800A04201D13668CDE72146FDF71CFA13
:109ED0000028F8D1B379012BF5D1336BDB02F2D531
:109EE000AB6EF26A9B6A9A42EDD9736BF363AB6E09
:109EF0001B6A2B6631462846FFF72CF9844650B979
:109F0000336B23F48013336331462846FFF770FB2D
:109F100084460028D7D0724B1A68239B5A404FF0D2
:109F2000000300F043812DF0EDFE1A684FEA125C49
:109F3000C2F30A52824204D1A28A0132A2820833B9
:109F4000A2E7BA420CD1A28A32B9664B664A40F205
:109F5000D761664849F064FE013AA2820126EEE725
:109F60000CF4E062B2F5C06FE9D15A681268A261E0
:109F70005A685268E2611A68C2F30052E275DEE77D
:109F80009DF883303BB122461BA9284600F012F908
:109F9000844600288BD1A37D13B9A38AFE2B2CD92C
:109FA000E26823680D934FF0FF31CDE91012A96EDE
:109FB0002369C969CDF80080083912910BA908916D
:109FC0004B4907910021CDE90511CDE90311CDE9F8
:109FD00001910DF1340B214628460E920F930B95FB
:109FE000CDF830B0FDF7DEFD8446C0B11CF11C0F8A
:109FF00003D01CF1540F7FF45AAF4FF0FF332B61A5
:10A00000A38A02930023CDE9004342464B462146F2
:10A010002846FFF765FC844600284FD047E705F146
:10A020003007CDE91B001D9039461BA805F13C0601
:10A03000FDF785F905F1480A31461BA8FDF77FF9C0
:10A040001BA85146FDF77BF91B9B23F47F7323F07C
:10A0500003031BA81B93FDF780F988B91BAA2146AF
:10A060002846FDF739FF844600287FF420AF214AB7
:10A070001BAB59462846FEF705FC84460028B5D19F
:10A0800059462846FEF76CFC84460028AED1AB6EDC
:10A090000E9A9969B2FBF1F301FB132323B1164B1E
:10A0A000114A40F2357154E7E2600F9A226197E855
:10A0B000070086E80700AB64CAE90133AE6A40F2E4
:10A0C000014B4FF0FF3A26B9AC6A002C52D1A4469E
:10A0D00021E706F10807A74210D13668F3E700BF71
:10A0E0004C4002204B65080082660800285F08008B
:10A0F000558902000CFCFF7F6D64080013A93846E7
:10A10000FDF702F986460028E7D1A446BCE80F0017
:10A110000FC79CE80F0087E80F00CE45DDD058F848
:10A120003E3040F2FF41C3F30A528A4213D1B28853
:10A13000C3F389239A4204D1C6E902AA0EF1010EA3
:10A14000EBE7FBD9B379013A022BB280F6D1B36ABF
:10A15000013BB362F2E75A45F0D1B288C3F38923D9
:10A160009A42EBD3B3790132022BB280E6D1B36AC3
:10A170000133EEE704F1080613A93046FDF7C4F8F1
:10A1800038B904F12007A388A18B8B4201D3E07F6B
:10A1900008B9246899E75B1AA3803A4631462846F5
:10A1A000FDF7CAFC84460028EDD0B4E6604625B031
:10A1B000BDE8F08F7FB51446134B0E4600F1480200
:10A1C000214605461B6803934FF00003FDF784FE0C
:10A1D00070B9E37D03F5C0620C4B43EA025301936F
:10A1E0001834012301AA314628460294FFF72EFEB7
:10A1F000054B1A68039B5A404FF0000301D02DF025
:10A2000081FD04B070BD00BF4C40022008FC0F006F
:10A210002DE9F0415F4BA2B01B6821934FF0000382
:10A22000C36B1A0D12F4E06F04460ED1236BC3F317
:10A230000900002837D1574B1A68219B5A404FF02C
:10A24000000300F0A4802DF05DFD534A0292C3F399
:10A2500089230193436C00930546504955F8403FCC
:10A260004F4841F21C024AF037FF2A4619A92046FE
:10A27000FDF762FC0028DED1E36B216BA063C3F322
:10A280008922484B0B40C4E90C30474B43EA8223F8
:10A29000CDE9113011AA012319A92046FFF7D6FDF7
:10A2A0000028C3D0C7E71C22002109A84AF0E0FB20
:10A2B0003E4F394EDFF8008101238DF83B3010937B
:10A2C0000FA8FDF717F838B1216B4942204649B273
:10A2D000FDF73CFF0020AEE70FAA11A92046FDF7CD
:10A2E0002BFC0028A7D19DF83B30002B44D119AAA4
:10A2F0000FA92046FDF7D2FB002813DA831C9AD160
:10A30000109B2649009341F24F020F9B284801966B
:10A310004AF0E2FE11AA09A92046FFF74BFF0028E8
:10A3200089D1CDE705AD034600953A4619A92046E7
:10A33000FDF7C6FD0028FFF67EAF05990F9B069836
:10A34000109A994201D1904216D0914201D198427F
:10A3500012D0CDE90021CDE902061049154841F29D
:10A3600065024AF0B9FE012307AA09A92046CDE9F2
:10A370000785FFF76BFDD2E711AD0FCD0DF1240C72
:10A38000ACE80F0095E80F008CE80F0098E722B0CA
:10A39000BDE8F0814C400220E0250900285F08005C
:10A3A0005A650800FF0300800000F04F00FCFF7FAB
:10A3B0008C650800BA65080008FC0F6070B52F4B6B
:10A3C00088B01B6807934FF000030B6B9A02054699
:10A3D0000C4606D42A4B2B4A2B4840F6B52149F0AF
:10A3E0001FFC1E0309D50020244B1A68079B5A4006
:10A3F0004FF0000340D02DF085FCFFF7F9F8226BF9
:10A4000018B142F400222263EEE7D103EBD504F148
:10A4100008063046FCF76EFF0028E4D1D3025DBF8A
:10A42000D4E90A0101ABC3E90001E26AA1884BBF8C
:10A43000E36C082240F2012040F2022042EA81222D
:10A4400042EA0052CDE90323226D936843EA812357
:10A4500043F0815305935368069303AA02233146C0
:10A460002846FFF7F3FC236B18B143F40023236362
:10A47000BAE723F48033FAE708B070BD4C400220FD
:10A4800090620800E9660800285F080070B50B6B51
:10A490009B0205460C4606D4104B114A114840F663
:10A4A000FA1149F0BDFBFFF789FFAB6A064605F1DB
:10A4B00028021BB1A34219680CD11160236D1B68DF
:10A4C00013B9E06C2CF060F8236B23F400132363C2
:10A4D000304670BD1A460B46EBE700BF906208009D
:10A4E000F7660800285F08002DE9F0478CB0984611
:10A4F0008E4B03921B680B934FF0000308F003038D
:10A50000012B149F06460D4633D148F400132F65E6
:10A510002B6305F1080700236B63EB63EB6403AA6D
:10A520002B1D39463046FDF701FD041E06DAA11C3D
:10A5300016D1AA8840F2FF339A4211D00123AB71A1
:10A54000B36A2B60A21CB56257D118F4807F07D084
:10A5500003984CF035F9F36E834219D26FF023045F
:10A560002B6B43F400232B6329463046FFF78EFF05
:10A5700004E0FFF74DFE04460028C6D06B4B1A6876
:10A580000B9B5A404FF0000300F0CC802DF0BAFB3B
:10A59000AB88674A674C0399089142EA832240EAF4
:10A5A000832040F4801044EA832305920022CDE901
:10A5B000093206920790032305AA39463046FFF771
:10A5C00045FC0028CAD1DFF874A14FF000084FF015
:10A5D0000C092B6D9A68424536D81B68002B67D052
:10A5E000EB64B06E05F14001FDF774FF40F201230A
:10A5F000B3EB145F66D00024C0E718F4007F40F08E
:10A600008880C4F30A50012840F08680AB8818F493
:10A61000806F4FEA832308D043F000542B6B43F440
:10A62000803344F480142B63CDE705F1280243F016
:10A630000053009243F008033F4A39463046FDF785
:10A640003FFC041EBFDA8BE72A6B02F00302022AEA
:10A6500007D12B6B03F00302012A1DD108F1010879
:10A66000B7E75868B5F804C009FB08F28118825CA6
:10A670008B684968009143EA8C2302F5407243EAF3
:10A680000253394652463046FDF71AFC0028E0DAFC
:10A69000831CDED0044663E72A6D526809FB08225A
:10A6A0009168726F91423AD843F480332B63D5E7B7
:10A6B000B36E986A2BF06DFFE864002891D16FF0BB
:10A6C0000B044DE72A6B6FF00103AB622B64C4F3FC
:10A6D0000904002342F48012EC622A636B64B36EB7
:10A6E0009B6AAB64002C86D040F2FE318B42AA8874
:10A6F00028BF0B4643EA8223EA6C009243F00053E2
:10A700000D4A39463046FDF7DBFB041EBFF673AF3A
:10A7100026E76FF0100423E76FF0140420E76FF0D2
:10A720001B041DE720460CB0BDE8F0874C4002201A
:10A73000000010400000102000FC0F7000FCFF7FA4
:10A7400013B5034C0094FFF7CFFE02B010BD00BF5D
:10A75000086708002DE9F0419AB03A4B039104468E
:10A760001B6819934FF00003FFF752FD00285AD1E0
:10A77000034603AA07A92046FDF7D8FB002852DBB1
:10A78000C0F3892340F2FF32934255D0060DA26AEE
:10A790000F92022E4FEA832505AF1FD145F00053DB
:10A7A000294A009743F0080307A92046FDF788FBD4
:10A7B000002838DB3A4611A92046FDF7BDF990BBC9
:10A7C000169B33F47F082CD101212046FDF7BEFCF7
:10A7D0000FAB8DF84280ADF84080A362002345F0B6
:10A7E0009F45069345F4E00501233A4607A9204614
:10A7F0000595FFF72BFB0F9BA362A0B9022E12D188
:10A800004FF0FF312046FDF7A1FC07AA11A9204611
:10A81000FDF79FF938B911AA07A92046FFF7CAFC2E
:10A8200001E06FF02600074B1A68199B5A404FF061
:10A83000000304D02DF066FA6FF01500F3E71AB0AC
:10A84000BDE8F0814C40022000FC0F7070B58EB066
:10A850001D461B4B01911B680D934FF000031646DC
:10A86000002301AA05A90446FDF760FB00281BDBB5
:10A87000C0F3892040F2FF33984206D104F1200250
:10A8800005A92046FDF758F970B9129A06F54076E9
:10A8900042EA065242EA8020CDE90305012303AAD9
:10A8A00005A92046FFF7D2FA054B1A680D9B5A40BE
:10A8B0004FF0000301D02DF025FA0EB070BD00BF9F
:10A8C0004C40022030B4029C456FA54202D330BCFC
:10A8D000FFF7BCBF6FF01B0030BC704730B5344B86
:10A8E00099B005461B6817934FF00003FDF7FEFD76
:10A8F000044600284FD1AB6E0146DA6A686E4AF012
:10A90000B7F8AB6E6C65DA6A196AEC65D2008A42F8
:10A9100094BFAA65A9651B6A2B660FA92846FEF796
:10A92000E5FB0446002833D14FF400330193AB6EAE
:10A93000DA691B6A0393EB6E04932B6F05936B6FBD
:10A9400006931C4B0292CDE909301B4B0B931B4B1A
:10A950000C931B4B0D9301AB0E9309AA03230FA974
:10A960002846FFF773FA044690B90790012307AA17
:10A970000FA928460893FDF7DFF8044640B98DF883
:10A980005200034602460FA92846FFF75FFA044625
:10A990002846FCF75AFD064B1A68179B5A404FF0A1
:10A9A000000301D02DF0AEF9204619B030BD00BF34
:10A9B0004C400220000010400800F00FAB6208007D
:10A9C000180010202DE9F04391B0CDE904320C4677
:10A9D000816E224B096A189FBDF864901B680F9323
:10A9E0004FF00003016607A90646FEF77FFB054608
:10A9F00030BBE17D8DF83310A1690D91E1690E91B5
:10AA0000BDF868100097CDE90191DDE9043207A98E
:10AA10003046FEF765FF054690B9DDF81C80089FBB
:10AA2000C4F818800123E761E37506F12001204690
:10AA3000FCF76AFC20B9B9F1000F01D1C6E908871B
:10AA4000064B1A680F9B5A404FF0000301D02DF0BF
:10AA500059F9284611B0BDE8F08300BF4C400220F0
:10AA60002DE9F04F2DED108B8FB09FEDCC8A069322
:10AA70009DF8A0300793CA4BDDF8A4A09FEDC9EA6A
:10AA80001B680D934FF0000300238AF8003090ED0F
:10AA9000000A09931746C44A20EE080A06460C46E7
:10AAA000138045F0B7F9F0EE408A96ED010A20EEEA
:10AAB000080A45F0AFF968EE808A96ED000A20EEAC
:10AAC000080A45F0A7F9B0EE409A96ED010A20EE8B
:10AAD000080A45F0DFF929EE009A96ED000A20EE0B
:10AAE000080A45F0D7F93546083595E807000AAB5E
:10AAF000F0EE40AA00F0D4FA728BD6F81200D6F825
:10AB000016100BAB00F0CCFA282212FB074305937A
:10AB1000059B9C4200F038812378002B00F03481A3
:10AB2000A388002B00F081806388002B7DD0A37860
:10AB3000069A934279D3E378079A934275D394EDBA
:10AB4000050A9FED9ADADFED9AEA20EE080A45F051
:10AB5000A1F9B0EE40BA94ED050A20EE080A45F0DE
:10AB600059F9D4ED097AD4ED040A87EE8EAA4FF094
:10AB700000094F46CB46F0EE40BA96ED070A00F0CA
:10AB8000E1F9221D07CA0CABF0EE409A00F088FAFA
:10AB9000D4ED087A94ED077A0C9B0A9DDFED856A67
:10ABA00094ED06CA0B9A67EE8D7A27EE087AED1AB5
:10ABB000C7EE27DAD31A2846019307EE105AB8EEEB
:10ABC000477A2CEE08CA87EE276ABFEE087A2AEE8B
:10ABD00007AA94ED047ACAEE075AF0EE6D3A85EEB4
:10ABE000A67ADFED756A9FED75AAC6EEA7CA27EEB5
:10ABF000267AB0EE4C3AE6EE07CAF0EE6B2AB0EEDB
:10AC00004B2AF0EE6C1AB0EE6A1AF0EE490AB0EE7A
:10AC1000680A00F0C3F9F4EEC09AF1EE10FAC8BF6A
:10AC2000A5F59665019BAB4201D8283470E7B26A5E
:10AC30004A45FAD9F0EE6D3AB0EE4C3AF0EE6B2A96
:10AC4000B0EE4B2AF0EE6C1AB0EE6A1AF0EE490A3A
:10AC5000B0EE680A284600F0A1F9F4EEC09AF1EED1
:10AC600010FAF0EE407A43DD336B1F4445F016FBDB
:10AC7000F6EE007A20EE270A45F0B2FA30EE00FA3E
:10AC8000D4ED04FAB0EE4F0A45F004F9D4ED046AAD
:10AC9000DFED4B7ACDED036AE6EEA67A4FF0010BBD
:10ACA0006FEE80FAB0EE4F0ACDED027A45F0B2F8C1
:10ACB000DDED036A9FED437ADDED027A27EE667AD9
:10ACC000E7EE007AB0EE670A45F0E8FA8FEE800A08
:10ACD00045F052FA336B1D44DFED3B7A20EE270A34
:10ACE000B4EE4A0AF1EE10FAC8BFB0EE40AA99E7F6
:10ACF000BBF1000F00F0A680D6ED087AB4EEE7AA0B
:10AD0000F1EE10FA40F19280D6ED097A07EE107A52
:10AD100067EE8D7AB8EE477AF4EEC77AF1EE10FA64
:10AD200000F2848096ED0B7A0C99DFF8A0802378EE
:10AD3000029307EE905A27EE0D7AF8EE677A884470
:10AD400027EE277AA844C7EE2E7AA3780393A8EBC0
:10AD50000708E378049309F10109FCEEE77A17EE9E
:10AD6000900A07EB4007A8EB00081AEE100A59F00A
:10AD70005DFF0D4B0999B3F800C040F6B41EF445D1
:10AD8000BFB225D98AF800B0054B09981A680D9B07
:10AD90005A404FF000037CD02CF0B4FF35FA8E3CC3
:10ADA0004C40022000007A44C84500200000704258
:10ADB000C099704B00C0A847DB0FC94000000000DD
:10ADC0002F2F1B4C19514746E12E6542809D9E2531
:10ADD000324A0CF110031380314A42F80C8002EB26
:10ADE0000C03029A00F07F00C7F30B0747EA00301C
:10ADF00002F03F0240EAC242039800F0070B42EA29
:10AE00004B6B049A02F007004BEA007B586800F095
:10AE100000404BEA0000002258609A6009A811B176
:10AE20000A6890450AD802689A60036005F58C5557
:10AE300000279FED1CAA1435BB46F3E601F108007C
:10AE40008968ECE7F1EE006A69EEA66AB3EE007A73
:10AE5000B4EEE60AF1EE10FA48BF326BB4EEE60A41
:10AE600048BFAD18F1EE10FA29EE877A07DBB4EE91
:10AE7000C70AF1EE10FA9CBF326B05EB8205F4EEC7
:10AE8000C77AF1EE10FAC2BF326B142101FB0255F2
:10AE9000C8E60FB0BDEC108BBDE8F08FC8450020B0
:10AEA000043C002000000000F0B59E461F4B93B00C
:10AEB00004461B6811934FF000030F4694460FCCD5
:10AEC00004AD0FC50FCC0FC50FCC0FC523682B6089
:10AED00006AB199E03CB1B88CDF82610ADF82A309F
:10AEE000BDF82630CDF822000133ADF826300DF143
:10AEF0000F0301939DF8603000930124734662466E
:10AF0000394604A80E94FFF7ABFD20B1D0E9002329
:10AF1000C6E900232046054B1A68119B5A404FF0A2
:10AF2000000301D02CF0EEFE13B0F0BD4C40022027
:10AF300007B5019300230093FFF7B6FF03B05DF858
:10AF400004FB000008B5DFED127A2DED028B20EE38
:10AF5000270A9FED108AF0EE608A38EE408A44F0AE
:10AF600059FF9FED0D7AC7EE287A27EE800A45F04B
:10AF700037F938EE400AF6EE007A20EE270A44F060
:10AF800089FFBDEC028B30EE000A20EE000A08BDFE
:10AF900035FA8E3CDB0FC93F1951C74508B507EE9E
:10AFA000900A2DED0A8BB8EE67BAB0EE40AA6BEEB0
:10AFB000219AF0EE41AAB0EE690AB0EE429AF0EEA4
:10AFC000628AB0EE43CAF0EE63BAB0EE608A44F033
:10AFD00061FF20EE090A45F003F9B0EE409AB0EEA9
:10AFE000690A44F091FF20EE280A44F039FEF0EEA1
:10AFF000408AB0EE690A44F00DFFB5EEC00AF1EEEA
:10B0000010FA48BFDFED247ADFED249A48BF78EECE
:10B01000A78AF0EE690A38EE8C0AABEE2B0A45F0EF
:10B0200013F9B5EEC00AF1EE10FAF0EE408A48BF0F
:10B0300070EE298AB0EE490A44F0ECFEF0EE40BA18
:10B04000B0EE680A44F0E6FEB0EE40BAB0EE490A4F
:10B0500044F0E0FEF0EE409AB0EE680A44F01AFFC9
:10B06000F0EE408AB0EE490A44F014FFF0EE480AD0
:10B07000D9EEA80AF0EE4A7ADBEE8B7A60EEA00AEF
:10B0800030EE6A0AE7EEA70ABDEC0A8BE0EE000A92
:10B09000B0EE600A08BD00BFDB0F4940DB0FC940BE
:10B0A00030B585B004AC04E90700BDF80440A4F253
:10B0B0006D700028B8BFA4F26A70A207BDF808201E
:10B0C000A4F2C6754FEAA00102F1FF3204F00300BA
:10B0D00040F26D1404FB0522A1F116010A449DF80B
:10B0E00006100CBFC0B20120013900EB41000C4931
:10B0F00051F820109DF80A0011449DF80B20C2EB76
:10B1000002124FF46164920004FB00229DF80C00CF
:10B110000244044800FB01221A6005B030BD00BFA4
:10B12000146708008051010038B50D4614460146E9
:10B13000202210484BF020FC202229460E484BF0DC
:10B140001BFC202221460D484BF016FC0C4B0D4AEF
:10B150001A600D4B0D499B1A0D4A13600D4A116080
:10B160000D4A521A0D490A6013B10D4B01221A7093
:10B1700038BD00BFD4450020F445002068460020BB
:10B180001C460020505202200000042000700200E3
:10B1900018460020D045002020A80900CC450020FA
:10B1A000144600202DE9F0472B4B0446D3F80080CD
:10B1B0002A482B4B0568D3F800C02A482A4B06685A
:10B1C0001B782E44A3B1294887694069276001385C
:10B1D000A8420FD3B0420DD801290BD960600220DC
:10B1E000DFF88C900435E044904506D8BDE8F08740
:10B1F0001846F5E700230120F2E7D2F800E01EF040
:10B20000010F22D00EF1FF3C65451CD8B4451AD879
:10B210000F2818D83EF8037C07EA090ABAF5784FD8
:10B2200015D13EF8057C09EA0707B7F5704F0AD13A
:10B230008842DBD2022803D113B16768674504D086
:10B2400044F820C001308842D0D20432CCE707F461
:10B250007F47B7F58E4FEAE71C460020D045002017
:10B2600018460020CC45002020460020244600201F
:10B2700000F8FFFF70B40D461946224B1B780446B8
:10B28000104603B9FEE7204B1A7802B1FEE701220F
:10B290001A70E3061D4C2B6823606B686360AB6813
:10B2A000A360EB68E3602B6923616B696361AB6941
:10B2B000A3614FF0E026EB69E361D6F8243D2362F9
:10B2C0004CBF05F1200205F16802114D95F82830B8
:10B2D00084F82430D6F8343DA36295F8293084F8F8
:10B2E0002C30D6F8383D23636B8DA386D6F82C3DE1
:10B2F000A3632B8E9BB2E363AB8F9BB2236470BCC2
:10B30000FFF750BF144600202046002024460020AE
:10B3100000ED00E06DDF704779DF70477DDF70473B
:10B3200064DF70472DE9F04F87B01E46109C2F4B0D
:10B3300001910025BDF844B0B4F800A0074690463E
:10B340001B6805934FF00003A9463A884A4513DC71
:10B3500045B12388013BA3EB0A039BB2FF2B40D8E6
:10B3600006F80A300020214B1A68059B5A404FF01E
:10B37000000338D02CF0C6FC7A6852F829000490FB
:10B3800000220DF10F0104A8FFF7CAFF0028EAD13F
:10B390009DF80F20424521D12288002D14BF0020A6
:10B3A000022002EB0801014459451ADC3DB9013283
:10B3B00092B2019B2280B3542288013222802288DB
:10B3C0000DF10F01324404A8FFF7AAFF0028CAD1EB
:10B3D00021889DF80F200A442280012509F10109E6
:10B3E000B3E70C20BFE707B0BDE8F08F4C40022068
:10B3F0002DE9F341089FBDF824801546CDE900787A
:10B40000022204461E46FFF78DFF50B93346102234
:10B4100029462046CDE9087802B0BDE8F041FFF7A3
:10B4200081BF02B0BDE8F0812DE9F04FA94B17882C
:10B4300087B01B6805934FF000030023138090F83A
:10B440002D3006460D46144653B3082F01D80C2064
:10B4500029E103A8FFF75EFF002840F0248123883C
:10B460000822EA54238801339BB21B222380EA542A
:10B470002088013080B2208006220DF10D01284481
:10B4800049F0E0F923889DF80C2006339BB212F0B6
:10B49000FE0218BF01222380EA542388013323804F
:10B4A000B37803B323880433BB42D0D80DF10A002C
:10B4B000FFF732FF002840F0F68023880322EA5489
:10B4C000238801339BB219222380EA542388BDF8D4
:10B4D0000A2001339BB2E9182380EA54120A4A7009
:10B4E000238802332380F2789AB12388D91CB94289
:10B4F000ADD80221E954238801339BB20121238076
:10B50000E95423880B449BB22380EA5423880B44DC
:10B5100023807268AAB12388D91CB94297D8022126
:10B5200092F90020E954238801339BB20A21238039
:10B53000E954238801339BB22380EA5423880133E2
:10B5400023803389002B40F0A280338A5BB1CDE9A0
:10B5500000472B460722032106F11000FFF748FFA2
:10B56000002840F0A080338B5BB1CDE900472B462B
:10B570001522142106F11800FFF73AFF002840F0C9
:10B580009280326A002A40F09880D6F82480B8F180
:10B59000000F30D0B8F804302188981C8A1C02446F
:10B5A000BA423FF654AFFE283FF651AF03336B5417
:10B5B000238801339BB2FF222380EA54238801337E
:10B5C0009BB22380B8F80020EA54E918120A4A70A6
:10B5D0002088023080B22080B8F804205AB1D8F810
:10B5E0000810002973D0284449F02CF92388B8F8B2
:10B5F00004201344238096F82C30002B40F0A380C5
:10B60000307800284FD03388012B60D0228802F197
:10B61000020CBC453FF61BAF012805D173780233FD
:10B6200013449F42FFF413AF023FBF1ABFB20DF1A4
:10B630000A0105EB0C00ADF80A70FFF76FFE90BB36
:10B640003178BDF80A30022900F0C38072789A423E
:10B6500002D39F4280F0BB80012940F0BC8097421A
:10B6600093B2C0F0B880ADF80A300821BDF80A30B6
:10B67000FE2B3FF6ECAE22880133AB542288013218
:10B6800092B22280A9542288134423800BE0CDE992
:10B6900000472B460622022106F10800FFF7A8FE0C
:10B6A00000283FF452AF0B4B1A68059B5A404FF0ED
:10B6B000000300F093802CF025FBB4F800C00CF1DF
:10B6C0000603BB423FF6C3AE1188052904D8072004
:10B6D000E9E700BF4C4002206FF4486E01EB0E0317
:10B6E0009BB24FF27D3E7345F1D95388052BEED9BD
:10B6F0006FF44860181880B27045E8D94FF6FF70B3
:10B70000814201D09942E2D8052305F80C30238804
:10B7100001339BB212212380E954238801339BB269
:10B7200023801188E954E818090A417023880233FC
:10B730009BB223805288EA54E918120A4A7023887F
:10B740000233238021E7B36A002BC0D04FF00008FA
:10B750004FF00C0A4FF0160BB16A5FFA88F20AFB41
:10B7600002F201EB0209B9F80430981CFE283FF6FA
:10B770006EAE208803332B54238801339BB2238081
:10B7800005F803B0238801339BB223808A5AEA5418
:10B79000E918120A4A702088023080B22080B9F875
:10B7A00004205AB1D9F80810002990D0284449F053
:10B7B00049F82388B9F804201344238096F82C20F4
:10B7C00008F101085FFA88F39A42C5D818E7092101
:10B7D0004CE79F42FBD2ADF80A7046E707B0BDE8E0
:10B7E000F08F00BF30B5C8B1F2B10024651C8D42A6
:10B7F00006DA1588A54212D805196D789D420ED13A
:10B80000A14211D9005D48B1013880B230B1023493
:10B81000A3B210FA84F4A14206DB138030BD055DAB
:10B8200001352C44A4B2E1E70020F7E713B5134635
:10B830000D4A126801924FF000020022ADF802207A
:10B840000DF102020446FFF7CDFF10B1BDF8023042
:10B85000E018054B1A68019B5A404FF0000301D0D5
:10B860002CF050FA02B010BD4C40022072DF70473D
:10B8700073DF704738B5012204460D46B0F8141442
:10B88000D0F81004FFF7D2FF00B1057004F13C02BC
:10B8900004F5826104F15400BDE83840FFF7E6BFCB
:10B8A00080F830107047F8B504460F4600296DD077
:10B8B00000286BD091F87A301BB191F89830002BAA
:10B8C00066D14FF0000C84F802C007F178060FCE65
:10B8D000251D0FC50FCE0FC596E8070085E80700A8
:10B8E00084F830C0D7F8A4306363D7F8A830A363D6
:10B8F0004FF6FF7504F58263C4F82034A4F824548D
:10B900000722614604F2264049F0B2F823780BB9C9
:10B9100084F8545094F82430002B14BFEE231F23D6
:10B9200004F15501C4F81014A4F8143404F21442BC
:10B930003846FFF779FD40BB94F82430002B14BF44
:10B94000EE231F2304F23121C4F81814A4F81C3488
:10B9500004F21C4207F13C00FFF766FDA8B9A36999
:10B96000A4F848304FF480730125A4F8503063697F
:10B970002064014684F83C50636404F13C0204F105
:10B980005400FFF773FF00B92570F8BD0E20FCE7E7
:10B990000720FAE7F8B5077804460D46002F00F0B7
:10B9A0000A8100F22646817007220021304649F0C4
:10B9B0005FF8E38813B1A378012B04D0E3794BB18E
:10B9C000A378022B06D1636BABB1012284F82D243E
:10B9D0000820984704F2274304F22D4113F8012B65
:10B9E00012B99942FAD117466B1E032B57D8DFE8DC
:10B9F00003F0050B0F1284F82D34EBE7A3791BB18C
:10BA000094F8243003B95FB9E3790BB1002F48D122
:10BA1000237A002B47D1637A002B0CBF0025042525
:10BA2000636BA570002B40D0033D012D3DD862799A
:10BA3000002A3AD094F82E24002A36D184F83024F3
:10BA4000012284F82F240720984704F13C0518228E
:10BA50000021284649F00CF8E26A0123511E994260
:10BA600084F83C3001D9042A00D1D3B294F82420C0
:10BA700084F8513042B1A36A591E012902D9042B1E
:10BA800018BF012384F85230A178002384F8503085
:10BA900004291BD8DFE801F0770D22355900002575
:10BAA000BEE70225BCE70325BAE7002384F82F345C
:10BAB000CBE7C4E91063C4F820340223012284F8E0
:10BAC0003C30802384F83120A4F84830A378002B40
:10BAD0005CD1636B002B6AD1002067E00223002A4F
:10BAE00084F8313014BF0723032384F83C302369E2
:10BAF000A4F848300023C4F82034E3682664636463
:10BB0000E4E763696364A369A4F8483012B10623CB
:10BB100084F83C306379B3B194F82E349BB994F82F
:10BB2000303483B1022384F8503004212046FFF7DB
:10BB3000A1FE0028CAD1052384F8313004F58263C0
:10BB4000C4F82034C2E70323F6E7E3696364236A99
:10BB5000A4F8483012B1062384F83C30637983B1ED
:10BB600094F82E346BB994F8303453B1022384F82E
:10BB7000503004212046FFF77DFE0028A6D1062381
:10BB8000DAE70423D8E784F831309FE7D4F82014AB
:10BB90002A4604F15400FFF769FE38B994F83010D2
:10BBA00094F85400FFF764FE002892D0F8BD94F892
:10BBB0003100984790E70820F8E710B50388112B6B
:10BBC0000C460AD0262B1FD0102B05D1C37B012B8E
:10BBD00002D18388A1F8243410BD002381F82E34CB
:10BBE0008288B1F824349A42F6D10B79002BF3D134
:10BBF00001212046FFF7CEFE0028EDD0A36B002BDD
:10BC0000EAD0BDE810401847037A013B012BE3D886
:10BC1000897805230131B1FBF3F303EB8303C91AE0
:10BC2000C9B2E6E70AB101F083BD01F08ABD73B580
:10BC30000191019C06466CB100252C46294601A8BD
:10BC400001F089FD18B106EB440301349D800135F4
:10BC5000142DF3D13046346002B070BD2DE9F047A9
:10BC60004C4B84888EB01B680D934FF00003038803
:10BC7000103B05460A2B21D8DFE803F006472020B9
:10BC800020202020207C5700DFF82481D8F80830BD
:10BC9000DB430193D8F8041001A801F088FD019955
:10BCA00002A8FFF7C4FF0DF10C090027029B9F4279
:10BCB0000ED3132C19D9042001F0A4FD354B1A68BA
:10BCC0000D9B5A404FF0000326D10EB0BDE8F0871F
:10BCD00039F802AB00260136514608EB860001F028
:10BCE00030FD1E2EF7D10137E0E72B48214601F049
:10BCF0001FFD2A48214601F01BFDEB7B022BDDD105
:10BD00002748214601F014FDD8E7224B1A680D9B05
:10BD10005A404FF0000301D02BF0F4FF1E4821469B
:10BD20000EB0BDE8F04701F00CBD027A1D483F2A75
:10BD30004FEA1215214694BF00220122FFF772FF3D
:10BD4000022D94BF0022012217482146FFF76AFF07
:10BD5000104B1A680D9B5A404FF00003DCD1012DA7
:10BD6000124894BF0022012221460EB0BDE8F047E0
:10BD7000FFF758BF037A002BA0D1064B1A680D9B22
:10BD80005A404FF00003C7D1427A0648C2F3C002BE
:10BD90002146EAE74C400220904600208C460020D5
:10BDA00094460020A04600209C4600209846002093
:10BDB000884600201328014602D8024801F0CBBC77
:10BDC000002070478C46002010B50446FFF7F2FFB4
:10BDD000002814BF2046142010BD70B50546164635
:10BDE00008460AB90E2070BD00231360002DF9D05B
:10BDF0002B68002BF6D0EB8813F003040ED1FFF76D
:10BE0000E3FFC0B214280BD02B7983420AD9EA8809
:10BE10002B6800FB023030602046E4E70720E2E7B1
:10BE20000520E0E70420DEE7AADF704700230138A1
:10BE30000B70042806D8DFE800F00306080A0C009F
:10BE400011230B7070472123FBE73123F9E71223FD
:10BE5000F7E72223F5E7008800F0010070470000B3
:10BE60002DE9F0415D4B92B01B6811934FF0000338
:10BE70008B78012B0C4638BF012301AF8DF81230AF
:10BE800005460B88ADF810300021164638460322CF
:10BE900048F0EEFD607C3946FFF7C8FFA07C0DF14D
:10BEA0000501FFF7C3FFE27B237B217D43EAC20349
:10BEB000227C43EA02139DF80620002922F0190291
:10BEC00003F0190314BF02210121134361F342035C
:10BED0001C2200210AA88DF8063048F0C9FD637BBA
:10BEE00013F0300F17D00DF10C080322002140464B
:10BEF00048F0BEFDE07C0DF10D01FFF797FF112327
:10BF00008DF80C309DF80E30CDF83C80012262F3A4
:10BF100042038DF80E30637B8DF828301422A37B0A
:10BF20008DF8293000210DEB020048F0A1FD04AB93
:10BF3000CDE90537A388ADF82030A3681BB1E288AE
:10BF4000ADF81C200993A369002B31D002AF032266
:10BF50000021384648F08CFDA3691A88ADF83020DE
:10BF60005A88ADF832205A680E97187B0B923946E2
:10BF7000FFF75CFFA3690DF10901587BFFF756FF3E
:10BF8000A3699A7A197A41EAC201DA7A9B7B41EA7B
:10BF900002119DF80A20002B01F0190122F019026C
:10BFA00014BF02230123114363F342018DF80A10E9
:10BFB000E36903B10D93334605AA0AA92846FFF7A2
:10BFC00033FF064B1A68119B5A404FF0000301D013
:10BFD0002BF098FE12B0BDE8F08100BF4C4002206B
:10BFE00090DF7047A5DF7047B5DF704770B5234B12
:10BFF00086B01B6805934FF0000301AA0023ADF83B
:10C000000C10ADF80E1003A90646ADF81030ADF8CF
:10C0100012300193ADF80830FFF7E2FF054600B398
:10C02000174B184CE41AE40801F05EFC240444F0B9
:10C030000104034614493246204600F043FFBDF890
:10C040000420BDF8063052EA030103D00F49204610
:10C0500000F038FFBDF808201AB10D49204600F065
:10C0600017FF064B1A68059B5A404FF0000301D09A
:10C070002BF048FE284606B070BD00BF4C400220A1
:10C0800038500900A050090074670800BE67080016
:10C09000FD67080078B14FF0171303601B2303718D
:10C0A0001723C380038141F61B32002301614381C2
:10C0B0008281184670470E20704720B1172904D19D
:10C0C0000180002070470E20704707207047000055
:10C0D0001FB5714A034680880C46126803924FF0E0
:10C0E0000002B8B91A88242A00F0A3801CD8112AAB
:10C0F0007CD0232A00F0AE80102A46D0A37A4BB120
:10C10000E1880020FFF76EFF002840F0A9804FF47F
:10C1100080736381604B1A68039B5A404FF00003A1
:10C1200040F0AB8004B010BD3A2A67D0552AE5D163
:10C13000DB88C988A072172B38BF17238B4228BF12
:10C140000B462381FFF750FF60B101F0CDFB534B4D
:10C150005349024653481B1ADB081B0443F00100F5
:10C1600000F096FEE27A002AC8D12369002BC5D0E0
:10C1700040F67721ADF806202289ADF80410ADF81D
:10C18000082001A920469847B8E70A790A73DB7BA3
:10C19000012B13D0022B14D0E18823898B4205D2C6
:10C1A0000020FFF71FFF70B90123E372217B637B3F
:10C1B0008B42A3D20020FFF719FF9FE70B88E38093
:10C1C000EAE74B88FBE7112802D10123A372EDE7D0
:10C1D00001F08AFB314B3449024632481B1ADB0816
:10C1E0001B0443F0010000F053FEDFE71723CB8070
:10C1F0000B8141F61B3348818B817FE75B89CA88BD
:10C20000934228BF1346172B0A6938BF17230B81A7
:10C2100062B1C97A51B140F67721ADF80410ADF89A
:10C220000600ADF8083001A920469047002363813D
:10C2300064E71A7A0B694A73002B3FF45FAF4DF63F
:10C240007A218DF80900ADF80410ADF806008DF8DC
:10C25000082096E7197A237B994228BF1946AAE756
:10C2600011283FF457AF01F03FFB0B4B1968039BBC
:10C2700059404FF00003024601D02BF043FD09481E
:10C28000064B09491B1ADB081B0443F0010004B0EC
:10C29000BDE8104000F0FCBD4C400220A050090059
:10C2A000846808003850090053680800B0DF704700
:10C2B00066DF704710B5002104464088FFF7F8FF9D
:10C2C000034608B9237210BD112801D10123F9E7F3
:10C2D0006368BDE81040184760B159B10378DE2BA0
:10C2E0000AD00B684360DE2303704FF6FF73438070
:10C2F000002070470E2070470820704728B103784F
:10C30000DE2B04D14180002070470E2070470820AA
:10C3100070470000F0B5334B87B005461B680593A6
:10C320004FF000030C4600294BD0002849D00B7871
:10C33000DE2B46D182884B889A4204D10B7A13B106
:10C340000846FFF7B7FF2B88112B43D0512B18D08D
:10C35000012B36D12B7A012B33D1A98862889142E7
:10C360002FD123721F4B1A68059B5A404FF00003D0
:10C3700001D02BF0C7FC204607B0BDE8F040FFF726
:10C3800099BFAE886388B3421BD1AF79022F18D111
:10C39000AD7B2B1F022B14D80021102201A848F0DE
:10C3A00067FB052D18BF4FF4C07301A9304618BFB5
:10C3B000ADF808308DF80470FFF778FF08B16368B6
:10C3C0009847084B1A68059B5A404FF00003D0D19C
:10C3D00007B0F0BD6388AA889A4204BF4FF6FF7386
:10C3E0006380EEE74C400220A8DF7047ADDF704766
:10C3F000AEDF704762DF704770B5544B8CB00546B6
:10C400001B680B934FF000030C46002962D00028F4
:10C4100060D00388502B37D0572B79D0102B59D1AF
:10C4200081886069002601AA0196FFF7D6FC0822E0
:10C4300031460DEB020048F01BFB0AAB0393218948
:10C44000A888022302AA0293FFF7D0FF002841D157
:10C45000A369002B3ED00398FFF7FDFC002839D0DC
:10C46000019B0BB101221A701822002104A848F088
:10C47000FFFA02238DF81030AB88ADF81830019B1D
:10C4800005940793A36923E08188606902AAFFF7F6
:10C49000A4FC1822002104A848F0EAFAAB882189FC
:10C4A000ADF81830EB88029A0594994207921FD193
:10C4B0002E8A022E1CD16AB105F11200FFF7CBFCC7
:10C4C000029B80B101221A708DF81060A3690BB134
:10C4D00004A898471D4B1A680B9B5A404FF0000365
:10C4E00032D02BF00FFC187003238DF81030EDE7DD
:10C4F000A2899A42EED1A369002BEBD000228DF8DD
:10C50000102005F1120208922A8AADF82420DFE7F4
:10C510008188606902AAFFF760FC01460028D9D132
:10C52000029B1B78002BD5D0A369002BD2D01822F8
:10C5300004A848F09DFA01238DF81030AB88ADF8BF
:10C5400018300594029B9CE70CB070BD4C40022053
:10C55000F0B5414B8FB01B680D934FF000033F4B7C
:10C5600009AD04460A4603F1100C2F4618685968B5
:10C570002E4603C6083363453546F7D1002C66D0F6
:10C58000002A64D01368A36121463846FFF732FFC2
:10C59000002853D12246012512F8023B8DF80230C3
:10C5A00069462846ADF80050FFF71EFF002845D128
:10C5B0000146202201A848F05BFA22460223ADF88A
:10C5C000043012F80C3B8DF80630BDF81030244EC4
:10C5D0006088029623F44F6323F00F0343F4406313
:10C5E0002B4301A9ADF810308DF815508DF8165079
:10C5F000FFF736FC10BB0146202201A848F038FAAC
:10C6000022460323ADF8043012F8043B8DF80630BF
:10C61000BDF810306088029623F4875323F01F037F
:10C6200043F480532B43ADF8103001A940F20113BD
:10C630008DF81550ADF81630FFF712FC064B1A684E
:10C640000D9B5A404FF0000303D02BF05BFB0E20F4
:10C65000F4E70FB0F0BD00BF4C400220C8680800EE
:10C6600014000100F0B51C461F4B87B00F4616465C
:10C670001B6805934FF00003054650B340696A46B6
:10C680002146FFF7AAFBD8B94FF6FF739C4222D090
:10C69000009B03B31B7803B33388142B1FD80146C8
:10C6A000102201A848F0E4F9AB88ADF8043001A9E4
:10C6B00001232046CDE903678DF80630FFF798FE89
:10C6C000094B1A68059B5A404FF0000309D02BF024
:10C6D00019FB0E20F4E70520F2E70820F0E7072019
:10C6E000EEE707B0F0BD00BF4C4002202DE9F84F47
:10C6F000B0F806A04579D2F800B09DF828900AFB62
:10C7000005F5043D88460BEB0301A94203F104043F
:10C7100088BFA5EB030BB4FBFAF607460AFB1644E9
:10C72000C2F800B04EB9AAEB04055D4528BF5D46CE
:10C73000BBF1000F04D1BDE8F88F3F68013EF1E77F
:10C74000043408EB06003C442A46B9F1000F0DD032
:10C750002146ABEB050B48F075F8DA452E443F68EF
:10C7600055464FF0000428BF5D46E1E701462046EC
:10C77000EFE700F093B8F8B546790146721E05461A
:10C78000002393422D6803D30024A64202D8F8BDAB
:10C790000133F6E70F68284600F0CEF80134394639
:10C7A000F3E72DE9F843CD1C068A074600F08EF822
:10C7B000043E35440446B5FBF6F5F0B14FF4807302
:10C7C000EDB28380C680013D076081464FF00008CE
:10C7D000A84512D2384600F079F8064648B1637988
:10C7E0000133637108F10108C9F800000760814650
:10C7F000EEE72046FFF7BFFF34462046BDE8F8834A
:10C800000121043000F0DFBF10B5012104460430DF
:10C8100000F0E5FFC0B220B92046BDE81040FFF7A8
:10C82000AABF10BD1FB5DFF834C0DCF800C0CDF8DA
:10C830000CC04FF0000C02920022009202AAFFF7F7
:10C8400055FF064B1A68039B5A404FF0000301D076
:10C850002BF058FA05B05DF804FB00BF4C400220F5
:10C860001FB5DFF834C0DCF800C0CDF80CC04FF0C5
:10C87000000C02920122009202AAFFF737FF064B3A
:10C880001A68039B5A404FF0000301D02BF03AFA8C
:10C8900005B05DF804FB00BF4C40022010B590B11C
:10C8A000D0E9012301689B1ADBB20A60013BDBB2CD
:10C8B000FF2B026802D10020107110BD11684C1CC2
:10C8C00014600B70F2E70E20F7E7000037B5194B44
:10C8D000044600250DF103001B6801934FF000038F
:10C8E0008DF8035000F0EAFE2268616813688B42FD
:10C8F00010D9591E116013F8013C228AE56802FB29
:10C9000003552268A36811685B1A1179DBB299425A
:10C9100038BF13719DF8030000F0F4FE054B1A6850
:10C92000019B5A404FF0000301D02BF0EBF9284651
:10C9300003B030BD4C40022037B5134B05461B6891
:10C9400001934FF000030DF1030000230C468DF816
:10C95000033000F0B3FE2A681368591C1160E968BF
:10C96000641A298AB4FBF1F41C709DF8030000F0EE
:10C97000C9FE054B1A68019B5A404FF0000301D0D5
:10C980002BF0C0F903B030BD4C400220037813F007
:10C99000040216D003F00303012B03D0022B09D0AD
:10C9A000012070470A6800880232C0F383100244F5
:10C9B0000A60F5E70B684288023303EB92130B60C1
:10C9C000EEE71046704700002DE9F04F4E4BDFF8C0
:10C9D0003CA187B00F461B6805934FF00003044647
:10C9E0000023861C0DF1030015468DF8033000F07E
:10C9F00065FEDAF804203A60DAF8083003F580734F
:10CA00009B1A0AF21C470AF583690AF21448B342DA
:10CA10001FD30020002D6ED004F00F039B0143F0C4
:10CA2000050363F30F00DAF80430DAB2033233445B
:10CA30004AF822009DF80300CAF8043000F062FEB4
:10CA4000314B1A68059B5A404FF0000357D02BF02A
:10CA500059F90121384600F0B6FE484600F0CBFEF9
:10CA6000404600F0C8FEDAF808000190C0B203307A
:10CA70000AEB800001A9FFF789FF019B30BBDAB206
:10CA80000AEB8202D16802919A1C0133DBB20AEBF5
:10CA900083030192D3F80CB001F00303012B22D0E1
:10CAA000022B15D08346404600F0A8FE10B1019B32
:10CAB000CAF808305946384600F085FEDAF80830E2
:10CAC000DAF8042003F580739B1AA0E7D8B2CEE70A
:10CAD000BDF80A30C3F3891303334FEA1B4B02EB53
